{
  "contractName": "Bridge",
  "abi": [
    {
      "inputs": [],
      "stateMutability": "nonpayable",
      "type": "constructor"
    },
    {
      "inputs": [
        {
          "internalType": "address",
          "name": "token",
          "type": "address"
        },
        {
          "internalType": "address[]",
          "name": "_addrList",
          "type": "address[]"
        },
        {
          "internalType": "uint256",
          "name": "_amount",
          "type": "uint256"
        }
      ],
      "name": "bulkSend",
      "outputs": [],
      "stateMutability": "nonpayable",
      "type": "function"
    },
    {
      "inputs": [
        {
          "internalType": "address",
          "name": "token",
          "type": "address"
        },
        {
          "internalType": "address[]",
          "name": "_addrList",
          "type": "address[]"
        },
        {
          "internalType": "uint256[]",
          "name": "_amounts",
          "type": "uint256[]"
        }
      ],
      "name": "bulkSendMultiple",
      "outputs": [],
      "stateMutability": "nonpayable",
      "type": "function"
    },
    {
      "inputs": [
        {
          "internalType": "address",
          "name": "token",
          "type": "address"
        },
        {
          "internalType": "address",
          "name": "sender",
          "type": "address"
        },
        {
          "internalType": "address[]",
          "name": "_addrList",
          "type": "address[]"
        },
        {
          "internalType": "uint256[]",
          "name": "_amounts",
          "type": "uint256[]"
        }
      ],
      "name": "bulkSendFromMultiple",
      "outputs": [],
      "stateMutability": "nonpayable",
      "type": "function"
    }
  ],
  "bytecode": "0x608060405234801561001057600080fd5b50610992806100206000396000f3fe608060405234801561001057600080fd5b50600436106100415760003560e01c80632bc6943b1461004657806374d659d8146101d2578063859d92b1146102b4575b600080fd5b6101d06004803603608081101561005c57600080fd5b81019080803573ffffffffffffffffffffffffffffffffffffffff169060200190929190803573ffffffffffffffffffffffffffffffffffffffff169060200190929190803590602001906401000000008111156100b957600080fd5b8201836020820111156100cb57600080fd5b803590602001918460208302840111640100000000831117156100ed57600080fd5b919080806020026020016040519081016040528093929190818152602001838360200280828437600081840152601f19601f8201169050808301925050505050505091929192908035906020019064010000000081111561014d57600080fd5b82018360208201111561015f57600080fd5b8035906020019184602083028401116401000000008311171561018157600080fd5b919080806020026020016040519081016040528093929190818152602001838360200280828437600081840152601f19601f820116905080830192505050505050509192919290505050610420565b005b6102b2600480360360608110156101e857600080fd5b81019080803573ffffffffffffffffffffffffffffffffffffffff1690602001909291908035906020019064010000000081111561022557600080fd5b82018360208201111561023757600080fd5b8035906020019184602083028401116401000000008311171561025957600080fd5b919080806020026020016040519081016040528093929190818152602001838360200280828437600081840152601f19601f8201169050808301925050505050505091929192908035906020019092919050505061061b565b005b61041e600480360360608110156102ca57600080fd5b81019080803573ffffffffffffffffffffffffffffffffffffffff1690602001909291908035906020019064010000000081111561030757600080fd5b82018360208201111561031957600080fd5b8035906020019184602083028401116401000000008311171561033b57600080fd5b919080806020026020016040519081016040528093929190818152602001838360200280828437600081840152601f19601f8201169050808301925050505050505091929192908035906020019064010000000081111561039b57600080fd5b8201836020820111156103ad57600080fd5b803590602001918460208302840111640100000000831117156103cf57600080fd5b919080806020026020016040519081016040528093929190818152602001838360200280828437600081840152601f19601f820116905080830192505050505050509192919290505050610774565b005b836000806101000a81548173ffffffffffffffffffffffffffffffffffffffff021916908373ffffffffffffffffffffffffffffffffffffffff16021790555080518251146104ba576040517f08c379a000000000000000000000000000000000000000000000000000000000815260040180806020018281038252602281526020018061093b6022913960400191505060405180910390fd5b60008090505b8251811015610614576000809054906101000a900473ffffffffffffffffffffffffffffffffffffffff1673ffffffffffffffffffffffffffffffffffffffff166323b872dd8585848151811061051357fe5b602002602001015185858151811061052757fe5b60200260200101516040518463ffffffff1660e01b8152600401808473ffffffffffffffffffffffffffffffffffffffff1673ffffffffffffffffffffffffffffffffffffffff1681526020018373ffffffffffffffffffffffffffffffffffffffff1673ffffffffffffffffffffffffffffffffffffffff1681526020018281526020019350505050602060405180830381600087803b1580156105cb57600080fd5b505af11580156105df573d6000803e3d6000fd5b505050506040513d60208110156105f557600080fd5b81019080805190602001909291905050505080806001019150506104c0565b5050505050565b826000806101000a81548173ffffffffffffffffffffffffffffffffffffffff021916908373ffffffffffffffffffffffffffffffffffffffff16021790555060008090505b825181101561076e576000809054906101000a900473ffffffffffffffffffffffffffffffffffffffff1673ffffffffffffffffffffffffffffffffffffffff1663a9059cbb8483815181106106b357fe5b6020026020010151846040518363ffffffff1660e01b8152600401808373ffffffffffffffffffffffffffffffffffffffff1673ffffffffffffffffffffffffffffffffffffffff16815260200182815260200192505050602060405180830381600087803b15801561072557600080fd5b505af1158015610739573d6000803e3d6000fd5b505050506040513d602081101561074f57600080fd5b8101908080519060200190929190505050508080600101915050610661565b50505050565b826000806101000a81548173ffffffffffffffffffffffffffffffffffffffff021916908373ffffffffffffffffffffffffffffffffffffffff160217905550805182511461080e576040517f08c379a000000000000000000000000000000000000000000000000000000000815260040180806020018281038252602281526020018061093b6022913960400191505060405180910390fd5b60008090505b8251811015610934576000809054906101000a900473ffffffffffffffffffffffffffffffffffffffff1673ffffffffffffffffffffffffffffffffffffffff1663a9059cbb84838151811061086657fe5b602002602001015184848151811061087a57fe5b60200260200101516040518363ffffffff1660e01b8152600401808373ffffffffffffffffffffffffffffffffffffffff1673ffffffffffffffffffffffffffffffffffffffff16815260200182815260200192505050602060405180830381600087803b1580156108eb57600080fd5b505af11580156108ff573d6000803e3d6000fd5b505050506040513d602081101561091557600080fd5b8101908080519060200190929190505050508080600101915050610814565b5050505056fe416464726573736573206d75737420657175616c20616d6f756e74732073697a652ea2646970667358221220a140154bafe1bd5d20fc1261c26ef4960abc55414173a696ad36728772b10f0464736f6c63430006020033",
  "source": "pragma solidity >=0.4.21 <0.7.0;\nimport './ERC20_TX.sol';\n\ncontract Bridge{\n    ERC20_TX rc_pets;\n    constructor () public{ \n    }\n    /*  @Dev Send same amount to all addresses\n        * @param token address: RC20 token address\n        * @param _addList address[]: list of addresses\n        * @param amount number: tokens to send\n     */\n    function bulkSend(address token, address[] memory _addrList, uint _amount) public {\n        rc_pets = ERC20_TX(token);\n        for (uint i =0;i<_addrList.length;i++){\n            rc_pets.transfer(_addrList[i], _amount);\n        }\n    }\n    /*  @dev Send amounts to addresses using transfer\n        * @param token address: RC20 token address\n        * @param _addList address[]: list of addresses\n        * @param _amounts number[]: list of amounts\n     */\n    function bulkSendMultiple(address token, address[] memory _addrList, uint[] memory _amounts) public {\n        rc_pets = ERC20_TX(token);\n        require(\n            _addrList.length == _amounts.length,\n            \"Addresses must equal amounts size.\"\n        );\n        for (uint i =0;i<_addrList.length;i++){\n            rc_pets.transfer(_addrList[i], _amounts[i]);\n        }\n    }\n    /* @dev Send amounts to addresses using allowance\n        * @param token address: RC20 token address\n        * @param _addList address[]: list of addresses\n        * @param _amounts number[]: list of amounts\n     */\n    function bulkSendFromMultiple(address token, address sender, address[] memory _addrList, uint[] memory _amounts) public {\n        rc_pets = ERC20_TX(token);\n        require(\n            _addrList.length == _amounts.length,\n            \"Addresses must equal amounts size.\"\n        );\n        for (uint i =0;i<_addrList.length;i++){\n            rc_pets.transferFrom(sender ,_addrList[i], _amounts[i]);\n        }\n    }\n}    ",
  "sourcePath": "/Users/mac/Desktop/blockchain-projects/bestvictor/bulk-send-bridge/contracts/Bridge.sol",
  "compiler": {
    "name": "solc",
    "version": "0.6.2+commit.bacdbe57.Emscripten.clang"
  },
  "schemaVersion": "3.4.0",
  "updatedAt": "2021-06-20T00:44:55.936Z",
  "networkType": "ethereum",
  "devdoc": {
    "methods": {}
  },
  "userdoc": {
    "methods": {}
  }
}